:020000040800F2
:1000000000200020210C0008E10B0008E30B000891
:1000100000000000000000000000000000000000E0
:10002000000000000000000000000000E50B0008D8
:100030000000000000000000E70B0008E90B0008CA
:10004000710C0008710C0008710C0008710C00089C
:10005000710C0008F10B0008710C0008710C00080D
:10006000710C0008710C0008710C0008710C00087C
:10007000710C0008710C0008710C0008710C00086C
:10008000710C0008710C000800000000710C0008E1
:10009000710C0008710C0008710C0008710C00084C
:1000A000710C0008710C0008710C0008710C00083C
:1000B000710C000800000000710C00080000000036
:1000C00010B5064C2378002B07D1054B002B02D02E
:1000D000044800E000BF0123237010BD0C00002085
:1000E00000000000E00C0008044B10B5002B03D00A
:1000F0000349044800E000BF10BDC04600000000F6
:1001000010000020E00C0008002243088B4274D34A
:1001100003098B425FD3030A8B4244D3030B8B4208
:1001200028D3030C8B420DD3FF22090212BA030C11
:100130008B4202D31212090265D0030B8B4219D3F2
:1001400000E0090AC30B8B4201D3CB03C01A524112
:10015000830B8B4201D38B03C01A5241430B8B425A
:1001600001D34B03C01A5241030B8B4201D30B0343
:10017000C01A5241C30A8B4201D3CB02C01A52416A
:10018000830A8B4201D38B02C01A5241430A8B422D
:1001900001D34B02C01A5241030A8B4201D30B0216
:1001A000C01A5241CDD2C3098B4201D3CB01C01A30
:1001B000524183098B4201D38B01C01A524143093A
:1001C0008B4201D34B01C01A524103098B4201D328
:1001D0000B01C01A5241C3088B4201D3CB00C01A95
:1001E000524183088B4201D38B00C01A524143080D
:1001F0008B4201D34B00C01A5241411A00D2014632
:10020000524110467047FFE701B5002000F006F8A4
:1002100002BDC0460029F7D076E770477047C04658
:1002200070B50500FA200D4B80001978FFF76CFFC0
:100230000B4B01001868FFF767FF00F085F804001A
:100240000120002C09D1032D07D8023822002900F3
:1002500000F03EF82000034B1D6070BD0000002040
:1002600008000020040000201023064A10B5116881
:1002700000200B431360FFF7D3FF00F099FC002030
:1002800010BDC04600200240034A044B11681B7891
:100290005B1813607047C046280000200000002053
:1002A000014B18687047C0462800002070B5040054
:1002B000FFF7F6FF0500631C02D0044B1B78E4181F
:1002C000FFF7EEFF401B8442FAD870BD000000200B
:1002D00070B58901002812DB8308134A03249B00B0
:1002E0009B18FF222040A0401400C02584401140EC
:1002F0008140AD005E59A6433143595170BD03247E
:100300000F23C0B203402040A040FC342500214010
:1003100085408140083B054A9B089B009B18DA6991
:10032000AA431143D961E9E700E100E000ED00E0F4
:10033000002805DB1F2318401E3B8340014A136041
:100340007047C04600E100E0094A431E0120934285
:100350000DD8C021074A08485360036A09061B02EA
:100360001B0A0B4303620020072390601360704751
:10037000FFFFFF0010E000E000ED00E0F0B50B68CB
:1003800087B0029300230191029ADA4001D107B0AD
:10039000F0BD01229A4003920399029A0A4000920A
:1003A00000D18CE0019A1021526816008E43022E73
:1003B0000ED107251D40AD000139A940DC08A4007D
:1003C0000419276A8F4301990969A9400F432762DD
:1003D00003245F00BC40E4430568013E2540AC4671
:1003E00003251540BD4061460D430560012E0FD821
:1003F00001998668CD682640BD40354385604668D2
:10040000039915098E4301210D409D4035434560F8
:10041000C56801992C408D688021BD4049052C4359
:10042000C4600A424BD00121264C0326A5691E4018
:100430000D43A561A4699D080C400594059C0F24FB
:100440002149AD00B6006D18B4409021AF68C905D0
:10045000A743002488420CD01C490134884208D0AC
:100460001B490134884204D01A490334884200D120
:10047000023CB44000993C430E00AC60164CCD43A6
:1004800027683E43D10301D43E002E4026606768B2
:10049000009E3E43910301D43E002E406660A76853
:1004A000009E3E43D10201D43E002E40A660E66885
:1004B000009F3743920201D42E403700E76001339A
:1004C00062E7C046001002400000014000040048FE
:1004D00000080048000C0048000401400069084082
:1004E000411E8841C0B27047002A01D08161704727
:1004F0008162FCE74369194200D0090481617047B9
:1005000070470000044B10B55A69104202D0586180
:10051000FFF7F6FF10BDC04600040140F0B504002F
:1005200085B0002802D1012005B0F0BD0368DB07CB
:100530002ED423689B077ED423681B0700D5BAE01E
:1005400023685B0700D5DDE02368DB061AD5626906
:10055000B44D0423012A00D049E1696B02260B4304
:100560006B636B6B1A436A63FFF79AFE07006B6B52
:10057000334200D134E1F8216A6BA3698A43DB007E
:1005800013436B63236A002B00D057E10020CBE7B5
:100590000C21A44D6A680A40042A06D06B680B40FF
:1005A000082B09D16B68DB0306D52B689B03C0D5EC
:1005B0006368002BBDD1B6E76368012B13D180239C
:1005C0002A685B0213432B60FFF76AFE8026070050
:1005D000B6022B683342ACD1FFF762FEC01B642821
:1005E000F7D90320A0E7002B15D12B688E4A80266F
:1005F00013402B602B688D4AB60213402B60FFF727
:100600004FFE07002B68334293D0FFF749FEC01B13
:100610006428F7D9E5E7052B05D180232A68DB029A
:1006200013432B60CBE72B687F4A13402B602B686A
:100630007E4A1340C7E70C227A4D6B68134206D0FE
:100640006B681340082B11D16B68DB030ED42B6849
:100650009B0703D5E368012B00D064E7F8212A68E3
:1006600023698A43DB0013432B6065E7E2680123BB
:10067000002A0FD02A68022613432B60FFF710FED2
:1006800007002B683342E9D1FFF70AFEC01B02289E
:10069000F7D9A6E72A6802269A432A60FFF700FEE8
:1006A00007002B68334200D146E7FFF7F9FDC01B76
:1006B0000228F6D995E7E26901235A4D002A10D0A5
:1006C0006A6A022613436B62FFF7EAFD07006B6A52
:1006D000334200D034E7FFF7E3FDC01B0228F6D910
:1006E0007FE76A6A02269A436A62FFF7D9FD07002C
:1006F0006B6A334200D123E7FFF7D2FDC01B02280B
:10070000F6D96EE780220021464D5205EB69009133
:10071000134208D1EB691343EB61EB691340039378
:10072000039B012300938027414E7F0033683B42A7
:1007300006D0A368012B13D12A6A13432B6230E041
:1007400033683B433360FFF7ABFD019033683B42B6
:10075000EFD1FFF7A5FD019BC01A6428F6D940E749
:100760000122002B14D12B6A022793432B622B6AA0
:10077000033293432B62FFF793FD06002B6A3B4243
:1007800025D0FFF78DFD2B4B801B9842F6D928E72B
:10079000052B0BD1296A013B0B432B622B6A1A43B1
:1007A0002A62FFF77DFD022706000DE02B6A9343C6
:1007B00004222B622B6A9343C0E7FFF771FD1D4BA8
:1007C000801B984200D90CE72B6A3B42F5D0009B76
:1007D000012B00D0B8E6EB69174A1340EB61B3E692
:1007E000FFF75EFDC01B022800D8C0E6F9E605321F
:1007F00003D16A6B9A436A63BDE66A6B02261343B0
:1008000001226B636B6B93436B63FFF749FD07003A
:100810006B6B334200D1B5E6FFF742FDC01B0228E7
:10082000F6D9DEE600100240FFFFFEFFFFFFFBFFF0
:100830000070004088130000FFFFFFEF0C20354AD6
:10084000516815000140082947D0334A022B32D1A4
:100850002B68802613402B60FFF722FD0700B604AB
:100860002B68334221D10F22EB6A9343E26A134390
:10087000EB62616AA36A6A680B43284980240A40D4
:1008800013436B6080232A685B0413432B60FFF7DC
:1008900007FD0600A4042B68234200D076E6FFF78C
:1008A000FFFC801B0228F6D99BE6FFF7F9FCC01B72
:1008B0000228D5D995E62B68802413402B60FFF7DA
:1008C000EFFC0600A4042B68234200D15EE6FFF78C
:1008D000E7FC801B0228F6D983E61800012B00D123
:1008E00022E680215368656A4902D26A19400120D4
:1008F000A94200D018E60F210A40E16A8A4200D0DE
:1009000012E6F02080030340A06A1B1A581E8341A0
:10091000D8B209E600100240FFFFFFFEFFFFC2FF52
:1009200070B5144C88B010222100684600F0C6F95A
:10093000210004AD10221031280000F0BFF90C2274
:100940000D4E73681A40082A11D10F206A46990C7F
:100950000140545CF26A0240A95CDB0305D50748FC
:10096000FFF7D2FB604308B070BD0548FAE70348C3
:10097000F9E7C046F80C00080010024000127A00A7
:1009800000093D00F7B505000F00002801D1012046
:10099000FEBD0122374C236813408B421CD32968CB
:1009A0008B0722D4CB072FD4012322681A40974209
:1009B00051D32B68304C5B0754D4FFF7B1FF636809
:1009C0002E4A1B061B0FD35CD8402D4B186000200D
:1009D000FFF726FC0020DBE7236893430B432360EB
:1009E000236813409942D2D1D9E7234A4B0704D553
:1009F000E0235068DB0003435360F02053688343D7
:100A0000A86803435360CDE71B4E6A683368012A28
:100A100019D19B03BBD5032173688B4313437360C8
:100A2000FFF73EFC01900C2372681A406B689B0034
:100A30009A42B9D0FFF734FC019BC01A114B98427F
:100A4000F1D90320A4E7022A02D19B01E3D49EE757
:100A50009B07E0D49BE722689A43226022681A42EF
:100A600095D1A6E76368084A1340EA6813436360B8
:100A7000A3E7C0460020024000100240180D000805
:100A80000800002088130000FFF8FFFF70B5102653
:100A900090B03022002104A800F019F932000021A2
:100AA000684600F014F9A023022401259B0304A842
:100AB0000E930494079508960C94FFF72FFD0723D7
:100AC0000093002329006846019402930393FFF7E3
:100AD00059FF10B070BD0000F0B589B0FFF7C4FB3E
:100AE000FFF7D4FF1422002103A800F0F0F88020C3
:100AF0002A4B800259698027014359615A69C026EF
:100B0000024080200092009A5969C0020143596155
:100B100080215A69090302400192019A5A69BF0172
:100B20000A435A615B6900220B40029339001C485A
:100B3000B600029BFFF7D8FC002231001948FFF7EE
:100B4000D3FC902000240125174B03A9C005049372
:100B500003950594FFF712FC03A911480397049528
:100B600005940694FFF70AFC03A90E480396049522
:100B700005940694FFF702FC052022002100FFF7F0
:100B8000A7FB0520FFF7D4FB802106484900FFF7AB
:100B9000B1FC0648FFF78AFBF6E7C04600100240AA
:100BA00000040048000800480000311088130000CD
:100BB00001200A4B82B099690143996180219A69A9
:100BC000490502400092009ADA690A43DA61DB695A
:100BD0000B400193019B02B07047C04600100240D9
:100BE0007047FEE77047704710B5FFF74DFB10BD2B
:100BF000902010B50121C005FFF770FC021E08D13E
:100C0000802105488900FFF76FFC0120FFF77AFC7F
:100C100010BD0122F4E7C0460008004870470000FC
:100C20000D4885460D480E490E4A002302E0D4586F
:100C3000C4500433C4188C42F9D30B4A0B4C002324
:100C400001E013600432A242FBD3FFF7E7FF00F09C
:100C500011F8FFF741FFFEE7002000200000002010
:100C60000C000020300D00080C0000202C0000209B
:100C7000FEE7000070B500260C4D0D4C641BA4105F
:100C8000A64209D1002600F02BF80A4D0A4C641B3D
:100C9000A410A64205D170BDB300EB5898470136A9
:100CA000EEE7B300EB5898470136F2E7280D00084D
:100CB000280D0008280D00082C0D0008002310B591
:100CC0009A4200D110BDCC5CC4540133F8E7030054
:100CD0008218934200D1704719700133F9E7000080
:100CE000F8B5C046F8BC08BC9E467047F8B5C0468B
:080CF000F8BC08BC9E467047E9
:100CF80002030405060708090A0B0C0D0E0F101055
:100D08000102030405060708090A0B0C0D0E0F1053
:100D180000000000000000000102030406070809A3
:040D2800E9000008D6
:040D2C00C1000008FA
:0C0D3000010000000400000000127A0026
:0400000508000C21C2
:00000001FF
